{
  "abi": [
    {
      "inputs": [
        {
          "internalType": "address",
          "name": "_admin",
          "type": "address"
        },
        {
          "internalType": "address payable",
          "name": "_bank",
          "type": "address"
        },
        {
          "internalType": "address",
          "name": "_token",
          "type": "address"
        },
        {
          "internalType": "uint256",
          "name": "_price",
          "type": "uint256"
        }
      ],
      "stateMutability": "nonpayable",
      "type": "constructor"
    },
    {
      "anonymous": false,
      "inputs": [],
      "name": "Close",
      "type": "event"
    },
    {
      "anonymous": false,
      "inputs": [
        {
          "indexed": true,
          "internalType": "address",
          "name": "investor",
          "type": "address"
        },
        {
          "indexed": false,
          "internalType": "uint256",
          "name": "value",
          "type": "uint256"
        },
        {
          "indexed": false,
          "internalType": "uint256",
          "name": "investment",
          "type": "uint256"
        },
        {
          "indexed": false,
          "internalType": "uint256",
          "name": "amount",
          "type": "uint256"
        }
      ],
      "name": "Invest",
      "type": "event"
    },
    {
      "anonymous": false,
      "inputs": [],
      "name": "Open",
      "type": "event"
    },
    {
      "anonymous": false,
      "inputs": [
        {
          "indexed": true,
          "internalType": "address",
          "name": "investor",
          "type": "address"
        }
      ],
      "name": "Unwhitelist",
      "type": "event"
    },
    {
      "anonymous": false,
      "inputs": [
        {
          "indexed": true,
          "internalType": "address",
          "name": "investor",
          "type": "address"
        }
      ],
      "name": "Whitelist",
      "type": "event"
    },
    {
      "inputs": [],
      "name": "ETH_PRICE",
      "outputs": [
        {
          "internalType": "uint256",
          "name": "",
          "type": "uint256"
        }
      ],
      "stateMutability": "view",
      "type": "function"
    },
    {
      "inputs": [],
      "name": "GLOBAL_CAP",
      "outputs": [
        {
          "internalType": "uint256",
          "name": "",
          "type": "uint256"
        }
      ],
      "stateMutability": "view",
      "type": "function"
    },
    {
      "inputs": [],
      "name": "INDIVIDUAL_CAP",
      "outputs": [
        {
          "internalType": "uint256",
          "name": "",
          "type": "uint256"
        }
      ],
      "stateMutability": "view",
      "type": "function"
    },
    {
      "inputs": [],
      "name": "TOKEN_PRICE",
      "outputs": [
        {
          "internalType": "uint256",
          "name": "",
          "type": "uint256"
        }
      ],
      "stateMutability": "view",
      "type": "function"
    },
    {
      "inputs": [],
      "name": "admin",
      "outputs": [
        {
          "internalType": "address",
          "name": "",
          "type": "address"
        }
      ],
      "stateMutability": "view",
      "type": "function"
    },
    {
      "inputs": [],
      "name": "bank",
      "outputs": [
        {
          "internalType": "address payable",
          "name": "",
          "type": "address"
        }
      ],
      "stateMutability": "view",
      "type": "function"
    },
    {
      "inputs": [],
      "name": "close",
      "outputs": [],
      "stateMutability": "nonpayable",
      "type": "function"
    },
    {
      "inputs": [
        {
          "internalType": "address",
          "name": "",
          "type": "address"
        }
      ],
      "name": "invested",
      "outputs": [
        {
          "internalType": "uint256",
          "name": "",
          "type": "uint256"
        }
      ],
      "stateMutability": "view",
      "type": "function"
    },
    {
      "inputs": [],
      "name": "isClosed",
      "outputs": [
        {
          "internalType": "bool",
          "name": "",
          "type": "bool"
        }
      ],
      "stateMutability": "view",
      "type": "function"
    },
    {
      "inputs": [],
      "name": "isOpen",
      "outputs": [
        {
          "internalType": "bool",
          "name": "",
          "type": "bool"
        }
      ],
      "stateMutability": "view",
      "type": "function"
    },
    {
      "inputs": [
        {
          "internalType": "address",
          "name": "",
          "type": "address"
        }
      ],
      "name": "isWhitelisted",
      "outputs": [
        {
          "internalType": "bool",
          "name": "",
          "type": "bool"
        }
      ],
      "stateMutability": "view",
      "type": "function"
    },
    {
      "inputs": [],
      "name": "open",
      "outputs": [],
      "stateMutability": "nonpayable",
      "type": "function"
    },
    {
      "inputs": [],
      "name": "raised",
      "outputs": [
        {
          "internalType": "uint256",
          "name": "",
          "type": "uint256"
        }
      ],
      "stateMutability": "view",
      "type": "function"
    },
    {
      "inputs": [],
      "name": "token",
      "outputs": [
        {
          "internalType": "contract IERC20",
          "name": "",
          "type": "address"
        }
      ],
      "stateMutability": "view",
      "type": "function"
    },
    {
      "inputs": [
        {
          "internalType": "address[]",
          "name": "_investors",
          "type": "address[]"
        }
      ],
      "name": "unwhitelist",
      "outputs": [],
      "stateMutability": "nonpayable",
      "type": "function"
    },
    {
      "inputs": [
        {
          "internalType": "address",
          "name": "_admin",
          "type": "address"
        }
      ],
      "name": "updateAdmin",
      "outputs": [],
      "stateMutability": "nonpayable",
      "type": "function"
    },
    {
      "inputs": [
        {
          "internalType": "address payable",
          "name": "_bank",
          "type": "address"
        }
      ],
      "name": "updateBank",
      "outputs": [],
      "stateMutability": "nonpayable",
      "type": "function"
    },
    {
      "inputs": [
        {
          "internalType": "uint256",
          "name": "_price",
          "type": "uint256"
        }
      ],
      "name": "updateETHPrice",
      "outputs": [],
      "stateMutability": "nonpayable",
      "type": "function"
    },
    {
      "inputs": [
        {
          "internalType": "address[]",
          "name": "_investors",
          "type": "address[]"
        }
      ],
      "name": "whitelist",
      "outputs": [],
      "stateMutability": "nonpayable",
      "type": "function"
    },
    {
      "inputs": [],
      "name": "withdraw",
      "outputs": [],
      "stateMutability": "nonpayable",
      "type": "function"
    },
    {
      "inputs": [],
      "name": "withdrawETH",
      "outputs": [],
      "stateMutability": "nonpayable",
      "type": "function"
    },
    {
      "stateMutability": "payable",
      "type": "receive"
    }
  ],
  "address": "0x633E4b44fE4f86006dBbe1A7C032b13dd1f501C8",
  "args": [
    "0xb71d2d88030a00830c3d45f84c12cc8aaf6857a5",
    "0x8873b045d40A458e46E356a96279aE1820a898bA",
    "0x185edff5E79F79d811b468AB734B6F9b5426acc7",
    350
  ],
  "solcInputHash": "0x77433f8ace0623b008c649785fd2b8c0f47d1a6e36fcb950762450f7760a7152",
  "bytecode": "0x60806040523480156200001157600080fd5b50604051620025ec380380620025ec833981810160405260808110156200003757600080fd5b508051602080830151604080850151606090950151815180830190925260168252600080516020620025cc83398151915293820193909352929390929091906001600160a01b0385166200010c5760405162461bcd60e51b81526004018080602001828103825283818151815260200191508051906020019080838360005b83811015620000d0578181015183820152602001620000b6565b50505050905090810190601f168015620000fe5780820380516001836020036101000a031916815260200191505b509250505060405180910390fd5b506040805180820190915260168152600080516020620025cc83398151915260208201526001600160a01b038416620001885760405162461bcd60e51b8152602060048201818152835160248401528351909283926044909101919085019080838360008315620000d0578181015183820152602001620000b6565b506040805180820190915260168152600080516020620025cc83398151915260208201526001600160a01b038316620002045760405162461bcd60e51b8152602060048201818152835160248401528351909283926044909101919085019080838360008315620000d0578181015183820152602001620000b6565b5060408051808201909152601481527f41504933203e20496e76616c6964207072696365000000000000000000000000602082015281620002885760405162461bcd60e51b8152602060048201818152835160248401528351909283926044909101919085019080838360008315620000d0578181015183820152602001620000b6565b50600480546001600160a01b038087166001600160a01b031992831617909255600580548684169083161790556006805492851692909116919091179055620002da816001600160e01b03620002e416565b50505050620004b7565b806000819055506200034160046200032d600a62000319670de0b6b3a7640000866200039d60201b62001eee1790919060201c565b6200039d60201b62001eee1790919060201c565b6200040460201b62001f471790919060201c565b6001556200036c816200032d621e8480670de0b6b3a76400006200039d602090811b62001eee17901c565b60025562000397816200032d620186a0670de0b6b3a76400006200039d602090811b62001eee17901c565b60035550565b600082620003ae57506000620003fe565b82820282848281620003bc57fe5b0414620003fb5760405162461bcd60e51b8152600401808060200182810382526021815260200180620025ab6021913960400191505060405180910390fd5b90505b92915050565b6000620003fb83836040518060400160405280601a81526020017f536166654d6174683a206469766973696f6e206279207a65726f0000000000008152506200044e60201b60201c565b60008183620004a05760405162461bcd60e51b8152602060048201818152835160248401528351909283926044909101919085019080838360008315620000d0578181015183820152602001620000b6565b506000838581620004ad57fe5b0495945050505050565b6120e480620004c76000396000f3fe60806040526004361061016e5760003560e01c8063ad44e73b116100cb578063e086e5ec1161007f578063f851a44011610059578063f851a44014610b4a578063fc0c546a14610b5f578063fcfff16f14610b745761082a565b8063e086e5ec14610aed578063e2f273bd14610b02578063f0ea4bfc14610b355761082a565b8063c2b6b58c116100b0578063c2b6b58c14610aae578063d226e56f14610ac3578063d2d8cb6714610ad85761082a565b8063ad44e73b146109b4578063bd8aa78014610a315761082a565b806376cdb03b11610122578063924bb1d011610107578063924bb1d014610942578063a33ff7c21461096c578063a8d294051461099f5761082a565b806376cdb03b146108fc5780638832bc291461092d5761082a565b806343d726d61161015357806343d726d61461088d57806347535d7b146108a257806366b3f6bf146108b75761082a565b80633af32abf1461082f5780633ccfd60b146108765761082a565b3661082a5760065460408051808201909152601d81527f41504933203e2050726573616c65206e6f74206f70656e656420796574000000602082015290600160a01b900460ff1661023d5760405162461bcd60e51b81526004018080602001828103825283818151815260200191508051906020019080838360005b838110156102025781810151838201526020016101ea565b50505050905090810190601f16801561022f5780820380516001836020036101000a031916815260200191505b509250505060405180910390fd5b5060065460408051808201909152601381527f41504933203e2050726573616c65206f76657200000000000000000000000000602082015290600160a81b900460ff16156102cc5760405162461bcd60e51b81526020600482018181528351602484015283519092839260449091019190850190808383600083156102025781810151838201526020016101ea565b5033600090815260086020908152604091829020548251808401909352601e83527f41504933203e2041646472657373206e6f742077686974656c697374656400009183019190915260ff166103635760405162461bcd60e51b81526020600482018181528351602484015283519092839260449091019190850190808383600083156102025781810151838201526020016101ea565b50600254600754106040518060400160405280601981526020017f41504933203e20476c6f62616c20636170207265616368656400000000000000815250906103ed5760405162461bcd60e51b81526020600482018181528351602484015283519092839260449091019190850190808383600083156102025781810151838201526020016101ea565b5060035460096000336001600160a01b03166001600160a01b0316815260200190815260200160002054106040518060400160405280601d81526020017f41504933203e20496e646976696475616c2063617020726561636865640000008152509061049a5760405162461bcd60e51b81526020600482018181528351602484015283519092839260449091019190850190808383600083156102025781810151838201526020016101ea565b50600354336000908152600960205260408120549091906104c1903463ffffffff610b8916565b11156104ee57336000908152600960205260409020546003546104e99163ffffffff610bec16565b6104f0565b345b90506000610504348363ffffffff610bec16565b9050600061051183610c2e565b33600090815260096020526040902054909150610534908463ffffffff610b8916565b33600090815260096020526040902055600754610557908463ffffffff610b8916565b600781905560025460408051808201909152601981527f41504933203e20476c6f62616c2063617020726561636865640000000000000060208201529111156105e15760405162461bcd60e51b81526020600482018181528351602484015283519092839260449091019190850190808383600083156102025781810151838201526020016101ea565b5060035460096000336001600160a01b03166001600160a01b031681526020019081526020016000205411156040518060400160405280601d81526020017f41504933203e20496e646976696475616c2063617020726561636865640000008152509061068f5760405162461bcd60e51b81526020600482018181528351602484015283519092839260449091019190850190808383600083156102025781810151838201526020016101ea565b50600654604080517fa9059cbb0000000000000000000000000000000000000000000000000000000081523360048201526024810184905290516001600160a01b039092169163a9059cbb916044808201926020929091908290030181600087803b1580156106fd57600080fd5b505af1158015610711573d6000803e3d6000fd5b505050506040513d602081101561072757600080fd5b505160408051808201909152601c81527f41504933203e204552433230207472616e73666572206661696c6564000000006020820152906107a95760405162461bcd60e51b81526020600482018181528351602484015283519092839260449091019190850190808383600083156102025781810151838201526020016101ea565b5081156107e2576040513390819084156108fc029085906000818181858888f193505050501580156107df573d6000803e3d6000fd5b50505b6040805134815260208101859052808201839052905133917f4df9cbfa66cbbabb528375b3af00207b446225af5a96b8a4b5c413b18226fb95919081900360600190a2505050005b600080fd5b34801561083b57600080fd5b506108626004803603602081101561085257600080fd5b50356001600160a01b0316610c5d565b604080519115158252519081900360200190f35b34801561088257600080fd5b5061088b610c72565b005b34801561089957600080fd5b5061088b610f12565b3480156108ae57600080fd5b506108626110f7565b3480156108c357600080fd5b506108ea600480360360208110156108da57600080fd5b50356001600160a01b0316611107565b60408051918252519081900360200190f35b34801561090857600080fd5b50610911611119565b604080516001600160a01b039092168252519081900360200190f35b34801561093957600080fd5b506108ea611128565b34801561094e57600080fd5b5061088b6004803603602081101561096557600080fd5b503561112e565b34801561097857600080fd5b5061088b6004803603602081101561098f57600080fd5b50356001600160a01b03166112a6565b3480156109ab57600080fd5b506108ea6114d2565b3480156109c057600080fd5b5061088b600480360360208110156109d757600080fd5b8101906020810181356401000000008111156109f257600080fd5b820183602082011115610a0457600080fd5b80359060200191846020830284011164010000000083111715610a2657600080fd5b5090925090506114d8565b348015610a3d57600080fd5b5061088b60048036036020811015610a5457600080fd5b810190602081018135640100000000811115610a6f57600080fd5b820183602082011115610a8157600080fd5b80359060200191846020830284011164010000000083111715610aa357600080fd5b50909250905061174f565b348015610aba57600080fd5b50610862611a4a565b348015610acf57600080fd5b506108ea611a5a565b348015610ae457600080fd5b506108ea611a60565b348015610af957600080fd5b5061088b611a66565b348015610b0e57600080fd5b5061088b60048036036020811015610b2557600080fd5b50356001600160a01b0316611b8c565b348015610b4157600080fd5b506108ea611d29565b348015610b5657600080fd5b50610911611d2f565b348015610b6b57600080fd5b50610911611d3e565b348015610b8057600080fd5b5061088b611d4d565b600082820183811015610be3576040805162461bcd60e51b815260206004820152601b60248201527f536166654d6174683a206164646974696f6e206f766572666c6f770000000000604482015290519081900360640190fd5b90505b92915050565b6000610be383836040518060400160405280601e81526020017f536166654d6174683a207375627472616374696f6e206f766572666c6f770000815250611e94565b6000610be6670de0b6b3a7640000610c5160015485611eee90919063ffffffff16565b9063ffffffff611f4716565b60086020526000908152604090205460ff1681565b6004546001600160a01b03163314610cd1576040805162461bcd60e51b815260206004820152601a60248201527f41504933203e2050726f746563746564206f7065726174696f6e000000000000604482015290519081900360640190fd5b60065460408051808201909152601b81527f41504933203e2050726573616c65206e6f74206f766572207965740000000000602082015290600160a81b900460ff16610d5e5760405162461bcd60e51b81526020600482018181528351602484015283519092839260449091019190850190808383600083156102025781810151838201526020016101ea565b50600654600554604080517f70a0823100000000000000000000000000000000000000000000000000000000815230600482015290516001600160a01b039384169363a9059cbb93169184916370a0823191602480820192602092909190829003018186803b158015610dd057600080fd5b505afa158015610de4573d6000803e3d6000fd5b505050506040513d6020811015610dfa57600080fd5b5051604080517fffffffff0000000000000000000000000000000000000000000000000000000060e086901b1681526001600160a01b03909316600484015260248301919091525160448083019260209291908290030181600087803b158015610e6357600080fd5b505af1158015610e77573d6000803e3d6000fd5b505050506040513d6020811015610e8d57600080fd5b505160408051808201909152601c81527f41504933203e204552433230207472616e73666572206661696c656400000000602082015290610f0f5760405162461bcd60e51b81526020600482018181528351602484015283519092839260449091019190850190808383600083156102025781810151838201526020016101ea565b50565b6004546001600160a01b03163314610f71576040805162461bcd60e51b815260206004820152601a60248201527f41504933203e2050726f746563746564206f7065726174696f6e000000000000604482015290519081900360640190fd5b60065460408051808201909152601d81527f41504933203e2050726573616c65206e6f74206f70656e656420796574000000602082015290600160a01b900460ff16610ffe5760405162461bcd60e51b81526020600482018181528351602484015283519092839260449091019190850190808383600083156102025781810151838201526020016101ea565b5060065460408051808201909152601381527f41504933203e2050726573616c65206f76657200000000000000000000000000602082015290600160a81b900460ff161561108d5760405162461bcd60e51b81526020600482018181528351602484015283519092839260449091019190850190808383600083156102025781810151838201526020016101ea565b50600680547fffffffffffffffffffff00ffffffffffffffffffffffffffffffffffffffffff16600160a81b1790556110c4610c72565b6110cc611a66565b6040517fc35789ccff76271dc0efa6bfde2f4d4a32cd48dd86278f75f8648cb068c86e3b90600090a1565b600654600160a01b900460ff1681565b60096020526000908152604090205481565b6005546001600160a01b031681565b60005481565b6004546001600160a01b0316331461118d576040805162461bcd60e51b815260206004820152601a60248201527f41504933203e2050726f746563746564206f7065726174696f6e000000000000604482015290519081900360640190fd5b60065460408051808201909152601581527f41504933203e2050726573616c65206f70656e65640000000000000000000000602082015290600160a01b900460ff161561121b5760405162461bcd60e51b81526020600482018181528351602484015283519092839260449091019190850190808383600083156102025781810151838201526020016101ea565b5060408051808201909152601481527f41504933203e20496e76616c696420707269636500000000000000000000000060208201528161129c5760405162461bcd60e51b81526020600482018181528351602484015283519092839260449091019190850190808383600083156102025781810151838201526020016101ea565b50610f0f81611f89565b6004546001600160a01b03163314611305576040805162461bcd60e51b815260206004820152601a60248201527f41504933203e2050726f746563746564206f7065726174696f6e000000000000604482015290519081900360640190fd5b60065460408051808201909152601581527f41504933203e2050726573616c65206f70656e65640000000000000000000000602082015290600160a01b900460ff16156113935760405162461bcd60e51b81526020600482018181528351602484015283519092839260449091019190850190808383600083156102025781810151838201526020016101ea565b5060408051808201909152601681527541504933203e20496e76616c6964206164647265737360501b60208201526001600160a01b0382166114165760405162461bcd60e51b81526020600482018181528351602484015283519092839260449091019190850190808383600083156102025781810151838201526020016101ea565b5060055460408051808201909152601681527541504933203e20496e76616c6964206164647265737360501b6020820152906001600160a01b03838116911614156114a25760405162461bcd60e51b81526020600482018181528351602484015283519092839260449091019190850190808383600083156102025781810151838201526020016101ea565b506005805473ffffffffffffffffffffffffffffffffffffffff19166001600160a01b0392909216919091179055565b60035481565b6004546001600160a01b03163314611537576040805162461bcd60e51b815260206004820152601a60248201527f41504933203e2050726f746563746564206f7065726174696f6e000000000000604482015290519081900360640190fd5b60408051808201909152601f81527f41504933203e20496e76616c6964206172726179205b746f6f206c6f6e675d00602082015260148211156115bb5760405162461bcd60e51b81526020600482018181528351602484015283519092839260449091019190850190808383600083156102025781810151838201526020016101ea565b5060005b8181101561174a57600860008484848181106115d757fe5b905060200201356001600160a01b03166001600160a01b03166001600160a01b0316815260200190815260200160002060009054906101000a900460ff166040518060400160405280601e81526020017f41504933203e2041646472657373206e6f742077686974656c69737465640000815250906116975760405162461bcd60e51b81526020600482018181528351602484015283519092839260449091019190850190808383600083156102025781810151838201526020016101ea565b506000600860008585858181106116aa57fe5b905060200201356001600160a01b03166001600160a01b03166001600160a01b0316815260200190815260200160002060006101000a81548160ff0219169083151502179055508282828181106116fd57fe5b905060200201356001600160a01b03166001600160a01b03167f7d430385cbadce4c709d8af1064e0b6574b4b524df3afbcbc5f9c02f3cbcebee60405160405180910390a26001016115bf565b505050565b6004546001600160a01b031633146117ae576040805162461bcd60e51b815260206004820152601a60248201527f41504933203e2050726f746563746564206f7065726174696f6e000000000000604482015290519081900360640190fd5b60408051808201909152601f81527f41504933203e20496e76616c6964206172726179205b746f6f206c6f6e675d00602082015260148211156118325760405162461bcd60e51b81526020600482018181528351602484015283519092839260449091019190850190808383600083156102025781810151838201526020016101ea565b5060005b8181101561174a57600083838381811061184c57fe5b905060200201356001600160a01b03166001600160a01b031614156040518060400160405280601681526020017541504933203e20496e76616c6964206164647265737360501b815250906118e25760405162461bcd60e51b81526020600482018181528351602484015283519092839260449091019190850190808383600083156102025781810151838201526020016101ea565b50600860008484848181106118f357fe5b905060200201356001600160a01b03166001600160a01b03166001600160a01b0316815260200190815260200160002060009054906101000a900460ff161560405180606001604052806022815260200161208d60229139906119975760405162461bcd60e51b81526020600482018181528351602484015283519092839260449091019190850190808383600083156102025781810151838201526020016101ea565b506001600860008585858181106119aa57fe5b905060200201356001600160a01b03166001600160a01b03166001600160a01b0316815260200190815260200160002060006101000a81548160ff0219169083151502179055508282828181106119fd57fe5b905060200201356001600160a01b03166001600160a01b03167feb73900b98b6a3e2b8b01708fe544760cf570d21e7fbe5225f24e48b5b2b432e60405160405180910390a2600101611836565b600654600160a81b900460ff1681565b60025481565b60015481565b6004546001600160a01b03163314611ac5576040805162461bcd60e51b815260206004820152601a60248201527f41504933203e2050726f746563746564206f7065726174696f6e000000000000604482015290519081900360640190fd5b60065460408051808201909152601b81527f41504933203e2050726573616c65206e6f74206f766572207965740000000000602082015290600160a81b900460ff16611b525760405162461bcd60e51b81526020600482018181528351602484015283519092839260449091019190850190808383600083156102025781810151838201526020016101ea565b506005546040516001600160a01b03909116904780156108fc02916000818181858888f19350505050158015610f0f573d6000803e3d6000fd5b6004546001600160a01b03163314611beb576040805162461bcd60e51b815260206004820152601a60248201527f41504933203e2050726f746563746564206f7065726174696f6e000000000000604482015290519081900360640190fd5b60408051808201909152601681527541504933203e20496e76616c6964206164647265737360501b60208201526001600160a01b038216611c6d5760405162461bcd60e51b81526020600482018181528351602484015283519092839260449091019190850190808383600083156102025781810151838201526020016101ea565b5060045460408051808201909152601681527541504933203e20496e76616c6964206164647265737360501b6020820152906001600160a01b0383811691161415611cf95760405162461bcd60e51b81526020600482018181528351602484015283519092839260449091019190850190808383600083156102025781810151838201526020016101ea565b506004805473ffffffffffffffffffffffffffffffffffffffff19166001600160a01b0392909216919091179055565b60075481565b6004546001600160a01b031681565b6006546001600160a01b031681565b6004546001600160a01b03163314611dac576040805162461bcd60e51b815260206004820152601a60248201527f41504933203e2050726f746563746564206f7065726174696f6e000000000000604482015290519081900360640190fd5b60065460408051808201909152601581527f41504933203e2050726573616c65206f70656e65640000000000000000000000602082015290600160a01b900460ff1615611e3a5760405162461bcd60e51b81526020600482018181528351602484015283519092839260449091019190850190808383600083156102025781810151838201526020016101ea565b50600680547fffffffffffffffffffffff00ffffffffffffffffffffffffffffffffffffffff16600160a01b1790556040517f59ebeb90bc63057b6515673c3ecf9438e5058bca0f92585014eced636878c9a590600090a1565b60008184841115611ee65760405162461bcd60e51b81526020600482018181528351602484015283519092839260449091019190850190808383600083156102025781810151838201526020016101ea565b505050900390565b600082611efd57506000610be6565b82820282848281611f0a57fe5b0414610be35760405162461bcd60e51b815260040180806020018281038252602181526020018061206c6021913960400191505060405180910390fd5b6000610be383836040518060400160405280601a81526020017f536166654d6174683a206469766973696f6e206279207a65726f000000000000815250612006565b6000819055611fbc6004610c51600a611fb085670de0b6b3a764000063ffffffff611eee16565b9063ffffffff611eee16565b600155611fde81610c51621e8480670de0b6b3a764000063ffffffff611eee16565b60025561200081610c51620186a0670de0b6b3a764000063ffffffff611eee16565b60035550565b600081836120555760405162461bcd60e51b81526020600482018181528351602484015283519092839260449091019190850190808383600083156102025781810151838201526020016101ea565b50600083858161206157fe5b049594505050505056fe536166654d6174683a206d756c7469706c69636174696f6e206f766572666c6f7741504933203e204164647265737320616c72656164792077686974656c6973746564a264697066735822122075dde21d13b9466bc4f9a71c478317640bf6032b1d5a32400802657fc5e5644b64736f6c63430006020033536166654d6174683a206d756c7469706c69636174696f6e206f766572666c6f7741504933203e20496e76616c6964206164647265737300000000000000000000",
  "devdoc": {
    "details": "Enable whitelisted investors to contribute to the API3 presale.",
    "methods": {
      "close()": {
        "details": "Close the presale. Close buys and open whithdrawal operations. Withdraw received ETH and remaining API3 tokens."
      },
      "constructor": {
        "details": "Deploy and initialize the API3 presale contract.",
        "params": {
          "_admin": "The address of the admin allowed to perform protected operations.",
          "_bank": "The address to which received ETH and remaining API3 tokens are gonna be sent once the presale closes.",
          "_price": "The price of ETH [in $ per ETH, e.g. $350 per ETH].",
          "_token": "The address of the API3 token."
        }
      },
      "open()": {
        "details": "Open the presale. Open buys and close whitelisting and pricing operations."
      },
      "unwhitelist(address[])": {
        "details": "Un-whitelist investors.",
        "params": {
          "_investors": "An array of investors ethereum addresses to be un-whitelisted."
        }
      },
      "updateAdmin(address)": {
        "details": "Update admin address.",
        "params": {
          "_admin": "The ethereum address of the new admin."
        }
      },
      "updateBank(address)": {
        "details": "Update bank address.",
        "params": {
          "_bank": "The ethereum address of the new bank."
        }
      },
      "updateETHPrice(uint256)": {
        "details": "Update pricing operations based on ETH price.",
        "params": {
          "_price": "The ETH price [in $ per ETH, e.g. $340 per ETH] [no decimals allowed]"
        }
      },
      "whitelist(address[])": {
        "details": "Whitelist investors.",
        "params": {
          "_investors": "An array of investors ethereum addresses to be whitelisted."
        }
      },
      "withdraw()": {
        "details": "Transfer any remaining API3 tokens hold by this contract to the bank."
      },
      "withdrawETH()": {
        "details": "Transfer any remaining ETH hold by this contract to the bank [though it should not be possible for this contract to receive ETH after the presale is closed]."
      }
    },
    "title": "A Presale contract made with  for the API3 folks."
  },
  "userdoc": {
    "methods": {}
  },
  "storageLayout": {
    "storage": [
      {
        "astId": 47,
        "contract": "contracts/API3Presale.sol:API3Presale",
        "label": "ETH_PRICE",
        "offset": 0,
        "slot": "0",
        "type": "t_uint256"
      },
      {
        "astId": 49,
        "contract": "contracts/API3Presale.sol:API3Presale",
        "label": "TOKEN_PRICE",
        "offset": 0,
        "slot": "1",
        "type": "t_uint256"
      },
      {
        "astId": 51,
        "contract": "contracts/API3Presale.sol:API3Presale",
        "label": "GLOBAL_CAP",
        "offset": 0,
        "slot": "2",
        "type": "t_uint256"
      },
      {
        "astId": 53,
        "contract": "contracts/API3Presale.sol:API3Presale",
        "label": "INDIVIDUAL_CAP",
        "offset": 0,
        "slot": "3",
        "type": "t_uint256"
      },
      {
        "astId": 55,
        "contract": "contracts/API3Presale.sol:API3Presale",
        "label": "admin",
        "offset": 0,
        "slot": "4",
        "type": "t_address"
      },
      {
        "astId": 57,
        "contract": "contracts/API3Presale.sol:API3Presale",
        "label": "bank",
        "offset": 0,
        "slot": "5",
        "type": "t_address_payable"
      },
      {
        "astId": 59,
        "contract": "contracts/API3Presale.sol:API3Presale",
        "label": "token",
        "offset": 0,
        "slot": "6",
        "type": "t_contract(IERC20)1498"
      },
      {
        "astId": 61,
        "contract": "contracts/API3Presale.sol:API3Presale",
        "label": "isOpen",
        "offset": 20,
        "slot": "6",
        "type": "t_bool"
      },
      {
        "astId": 63,
        "contract": "contracts/API3Presale.sol:API3Presale",
        "label": "isClosed",
        "offset": 21,
        "slot": "6",
        "type": "t_bool"
      },
      {
        "astId": 65,
        "contract": "contracts/API3Presale.sol:API3Presale",
        "label": "raised",
        "offset": 0,
        "slot": "7",
        "type": "t_uint256"
      },
      {
        "astId": 69,
        "contract": "contracts/API3Presale.sol:API3Presale",
        "label": "isWhitelisted",
        "offset": 0,
        "slot": "8",
        "type": "t_mapping(t_address,t_bool)"
      },
      {
        "astId": 73,
        "contract": "contracts/API3Presale.sol:API3Presale",
        "label": "invested",
        "offset": 0,
        "slot": "9",
        "type": "t_mapping(t_address,t_uint256)"
      }
    ],
    "types": {
      "t_address": {
        "encoding": "inplace",
        "label": "address",
        "numberOfBytes": "20"
      },
      "t_address_payable": {
        "encoding": "inplace",
        "label": "address payable",
        "numberOfBytes": "20"
      },
      "t_bool": {
        "encoding": "inplace",
        "label": "bool",
        "numberOfBytes": "1"
      },
      "t_contract(IERC20)1498": {
        "encoding": "inplace",
        "label": "contract IERC20",
        "numberOfBytes": "20"
      },
      "t_mapping(t_address,t_bool)": {
        "encoding": "mapping",
        "key": "t_address",
        "label": "mapping(address => bool)",
        "numberOfBytes": "32",
        "value": "t_bool"
      },
      "t_mapping(t_address,t_uint256)": {
        "encoding": "mapping",
        "key": "t_address",
        "label": "mapping(address => uint256)",
        "numberOfBytes": "32",
        "value": "t_uint256"
      },
      "t_uint256": {
        "encoding": "inplace",
        "label": "uint256",
        "numberOfBytes": "32"
      }
    }
  },
  "gasEstimates": {
    "creation": {
      "codeDepositCost": "1684000",
      "executionCost": "infinite",
      "totalCost": "infinite"
    },
    "external": {
      "ETH_PRICE()": "1066",
      "GLOBAL_CAP()": "1065",
      "INDIVIDUAL_CAP()": "1087",
      "TOKEN_PRICE()": "1087",
      "admin()": "1081",
      "bank()": "1083",
      "close()": "infinite",
      "invested(address)": "1214",
      "isClosed()": "1072",
      "isOpen()": "1095",
      "isWhitelisted(address)": "1183",
      "open()": "23575",
      "raised()": "1087",
      "token()": "1103",
      "unwhitelist(address[])": "infinite",
      "updateAdmin(address)": "22992",
      "updateBank(address)": "23897",
      "updateETHPrice(uint256)": "infinite",
      "whitelist(address[])": "infinite",
      "withdraw()": "infinite",
      "withdrawETH()": "infinite"
    },
    "internal": {
      "_ETHToTokens(uint256)": "infinite",
      "_setPrice(uint256)": "infinite"
    }
  }
}